:100000000A128A11FC2F00308A000408840A820731
:1000100000344434453453344C3449344734413447
:0600200044344F340034AB
:100E9000831203138C1E4D2F4E2F482F1A08080063
:100EA000F00083160313981C562F572F512F7008EC
:100EB0008312031399000800F40074080A128A11BF
:100EC00084270A128A110D300A128A1150270A1239
:100ED0008A110A300A128A1150270A128A11080050
:100EE000F10071080A128A1150270A128A110D3076
:100EF0000A128A1150270A128A110A300A128A111C
:100F000050270A128A110800F300F101F2019B2F09
:100F10007108730784000A128A1103200A128A11C9
:100F20000A128A1150270A128A110130F107031898
:100F3000F20A0030F2077108730784000A128A115E
:100F400003200A128A11003A031DA72FA82F882F09
:100F500008000730831603139C00831203139F01BC
:100F60000630831603139F008601803087008312AA
:100F70000313860187011F3083160313990018128B
:100F8000981683120313981718160A128A11482705
:100F90000A128A11F50064307506031DD02FD12F77
:100FA000E22F75080A128A1170270A128A1104307A
:100FB0000A128A115C270A128A11F501831203139F
:100FC0008616C52FFE307506031DE72FE82FC52FA7
:100FD00075080A128A1170270A128A1101300A1242
:100FE0008A115C270A128A11F501831203138612F3
:100FF000C52F0A128A11002883010A128A11A92F0B
:08400000FF3FFF3FFF3FFF3FC0
:02400E003A3F37
:00000001FF
