:100000000A128A11F02F00308A000408840A82073D
:1000100000344134413441340034443444344434B1
:020020000034AA
:100DFE00831203138C1E042F052FFF2E1A080800D2
:100E0E00F00083160313981C0D2F0E2F082F700859
:100E1E008312031399000800F400F201F301282F46
:100E2E0072087407F1007108840000080A128A1112
:100E3E0007270A128A110130F2070318F30A00304D
:100E4E00F30772087407F100710884008313000819
:100E5E00031D322F332F172F0800F300F401F50175
:100E6E0070087104031D3C2F3D2F3E2F5A2F74081E
:100E7E007307F200720884000A128A11FF260A1202
:100E8E008A11831380000130F4070318F50A00302D
:100E9E00F50771087502031D562F70087402031CA6
:100EAE00592F5A2F3E2F70087307F20072088400D4
:100EBE00831380010800F4006C2F0130FF007F08BF
:100ECE00F4070130FF007F08F007700884000A1253
:100EDE008A1103200A128A11F20074088400831307
:100EEE0000087206031D7C2F7D2F842F740884004A
:100EFE000008031D832F842F642F700884000A12AC
:100F0E008A1103200A128A11F20074088400000864
:100F1E00F30072087302F000F101031CF1030800E4
:100F2E000730831603139C00831203139F010630B0
:100F3E00831603139F0086018030870083120313EC
:100F4E00860187011F308316031399001812981615
:100F5E0083120313981718160330F0000030F100B7
:100F6E0020300A128A1134270A128A110130F00039
:100F7E0020300A128A1162270A128A11700871042F
:100F8E00031DCA2FCB2FD52F20300A128A111327FB
:100F9E000A128A11831203138616B32F0530F0003E
:100FAE0020300A128A1162270A128A1170087104FF
:100FBE00031DE22FE32FB32F20300A128A111327BD
:100FCE000A128A11831203138612B32F0A128A1180
:100FDE00002883120313A001A101A201A301A40101
:100FEE00A501A601A701A801A90183010A128A1170
:020FFE00972F2B
:08400000FF3FFF3FFF3FFF3FC0
:02400E003A3F37
:00000001FF
